2010954001QUALIFICAR SOCIAL E PROFISSIONALMENTE OS TRABALHADORES                2                                                                                                                                                                                                        000000
2010954002HABILITAR TRABALHADORES E TRABALHADORAS AO SEGURO DESEMPREGO          2                                                                                                                                                                                                        000000
2010957002EXECUÇÃO DE SENTENÇAS JUDICIAIS                                       0                                                                                                                                                                                                        000000
2010957003ENCARGOS GERAIS DA DIVÍDA PÚBLICA                                     0                                                                                                                                                                                                        000000
2010954005FORTALECIMENTO DAS REDES LOCAIS PARA GARANTIR OS DIREITOS CONQUISTADOS2                                                                                                                                                                                                        000000
2010957005ENCARGOS COM INDENIZAÇÕES E RESTITUIÇÕES                              0                                                                                                                                                                                                        000000
2010954008MAPEAMENTO E DIAGNÓSTICOS DA REALIDADE DAS CRIANÇAS E ADOLESCENTES DO 2                                                                                                                                                                                                        000000
2010952010QUALIFICAÇÃO E CAPACITAÇÃO DOS SERVIDORES                             2                                                                                                                                                                                                        000000
2010954019CAPACITAÇÃO E TREINAMENTO DE RECURSOS HUMANOS                         2                                                                                                                                                                                                        000000
2010954022PROJETO DE CIDADE DIGITAL                                             2                                                                                                                                                                                                        000000
2010951025CONSTRUIR, REFORMAR , AMPLIAR, ADEQUAR E EQUIPAR A SEDE DA SECRETARIA 1                                                                                                                                                                                                        000000
2010957027ENCARGOS DE EXERCÍCIOS ANTERIORES INERENTES ÀS AÇÕES E SERVIÇOS NA ÁRE0                                                                                                                                                                                                        000000
2010954028ARTICULAÇÃO DA POLITICA MUNICIPAL DE CIÊNCIA & TECNOLOGIA             2                                                                                                                                                                                                        000000
2010957029ENCARGOS DE EXERCÍCIOS ANTERIORES INERENTES ÀS AÇÕES E SERVIÇOS NA ÁRE0                                                                                                                                                                                                        000000
2010957030ENCARGOS DE EXERCÍCIOS ANTERIORES INERENTES ÀS AÇÕES E SERVIÇOS NA ÁRE0                                                                                                                                                                                                        000000
2010957031ENCARGOS DE EXERCÍCIOS ANTERIORES INERENTES ÀS AÇÕES E SERVIÇOS NA ÁRE0                                                                                                                                                                                                        000000
2010957032ENCARGOS DE EXERCÍCIOS ANTERIORES INERENTES ÀS AÇÕES E SERVIÇOS NA ÁRE0                                                                                                                                                                                                        000000
2010954033CAPACITAÇÃO E TREINAMENTO DE RECURSOS HUMANOS.                        2                                                                                                                                                                                                        000000
2010957033ENCARGOS DE EXERCÍCIOS ANTERIORES INERENTES ÀS AÇÕES E SERVIÇOS NA ÁRE0                                                                                                                                                                                                        000000
2010957034ENCARGOS DE EXERCÍCIOS ANTERIORES INERENTES ÀS AÇÕES E SERVIÇOS NA ÁRE0                                                                                                                                                                                                        000000
2010957035ENCARGOS DE EXERCÍCIOS ANTERIORES INERENTES ÀS AÇÕES E SERVIÇOS NA ÁRE0                                                                                                                                                                                                        000000
2010957036ENCARGOS DE EXERCÍCIOS ANTERIORES INERENTES ÀS AÇÕES E SERVIÇOS NA ÁRE0                                                                                                                                                                                                        000000
2010957037ENCARGOS DE EXERCÍCIOS ANTERIORES INERENTES ÀS AÇÕES E SERVIÇOS NA ÁRE0                                                                                                                                                                                                        000000
2010957038ENCARGOS DE EXERCÍCIOS ANTERIORES INERENTES ÀS AÇÕES E SERVIÇOS NA ÁRE0                                                                                                                                                                                                        000000
2010954039PLANO DIRETOR MUNICIPAL DE TURISMO                                    2                                                                                                                                                                                                        000000
2010957039ENCARGOS DE EXERCÍCIOS ANTERIORES INERENTES ÀS AÇÕES E SERVIÇOS NA ÁRE0                                                                                                                                                                                                        000000
2010957040ENCARGOS DE EXERCÍCIOS ANTERIORES INERENTES ÀS AÇÕES E SERVIÇOS NA ÁRE0                                                                                                                                                                                                        000000
2010952041MANUTENÇÃO DOS SERVIÇOS ADMINISTRATIVOS                               2                                                                                                                                                                                                        000000
2010957041ENCARGOS DE EXERCÍCIOS ANTERIORES INERENTES ÀS AÇÕES E SERVIÇOS NA ÁRE0                                                                                                                                                                                                        000000
2010957042ENCARGOS DE EXERCÍCIOS ANTERIORES INERENTES ÀS AÇÕES E SERVIÇOS NA ÁRE0                                                                                                                                                                                                        000000
2010957043ENCARGOS DE EXERCÍCIOS ANTERIORES INERENTES ÀS AÇÕES E SERVIÇOS NA ÁRE0                                                                                                                                                                                                        000000
2010957044ENCARGOS DE EXERCÍCIOS ANTERIORES INERENTES ÀS AÇÕES E SERVIÇOS NA ÁRE0                                                                                                                                                                                                        000000
2010957045ENCARGOS DE EXERCÍCIOS ANTERIORES INERENTES ÀS AÇÕES E SERVIÇOS NA ÁRE0                                                                                                                                                                                                        000000
2010951046INFRA-ESTRUTURA URBANA NOS BAIRROS E COMUNIDADES                      1                                                                                                                                                                                                        000000
2010957046ENCARGOS DE EXERCÍCIOS ANTERIORES INERENTES ÀS AÇÕES E SERVIÇOS NA ÁRE0                                                                                                                                                                                                        000000
2010957047ENCARGOS DE EXERCÍCIOS ANTERIORES INERENTES ÀS AÇÕES E SERVIÇOS NA ÁRE0                                                                                                                                                                                                        000000
2010957048ENCARGOS COM A PREVIDÊNCIA SOCIAL - INSS                              0                                                                                                                                                                                                        000000
2010951049URBANIZAÇÃO DA ORLA MARÍTIMA                                          1                                                                                                                                                                                                        000000
2010957049DESPESAS COM CONTRIBUIÇÕES, AUXÍLIOS E/OU SUBVENÇÕES SOCIAIS          0                                                                                                                                                                                                        000000
2010951050CONSTRUÇÃO E RECUPERAÇÃO DE CALÇADAS, ESCADARIAS, PRAÇAS, JARDINS E AL1                                                                                                                                                                                                        000000
2010957050DESPESAS COM CONTRIBUIÇÕES, AUXÍLIOS E/OU SUBVENÇÕES SOCIAIS          0                                                                                                                                                                                                        000000
2010951051SERVIÇOS TÉCNICOS DE CONSULTORIA E PROJETOS                           1                                                                                                                                                                                                        000000
2010957051ENCARGOS GERAIS DA DÍVIDA PÚBLICA, INERENTES AS ÁÇÕES DA ÁREA DE  EDUC0                                                                                                                                                                                                        000000
2010957052ENCARGOS GERAIS DA DÍVIDA PÚBLICA, INERENTES ÀS AÇÕES E SERVIÇOS NA ÁR0                                                                                                                                                                                                        000000
2010954055AQUISIÇÃO DE LIVROS TÉCNICOS E ASSINATURA DE PERIÓDICOS               2                                                                                                                                                                                                        000000
2010954056VISITA GUIADA E MESTRE DE OFÍCIO                                      2                                                                                                                                                                                                        000000
2010957056DESPESA COM CONTRIBUIÇÃO, AUXÍLIO E/OU SUBVENÇÕES SOCIAIS             0                                                                                                                                                                                                        000000
2010954058SALÃO DE EXPOSIÇÕES DA ESTAÇÃO CABO BRANCO, CIÊNCIA, CULTURA E ARTES  2                                                                                                                                                                                                        000000
2010951059IMPLANTAÇÃO, RECUPERAÇÃO E MANUTENÇÃO DE DRENAGEM DE ÁGUAS PLUVIAIS NA1                                                                                                                                                                                                        000000
2010954059SALAS DE ARTES DA ESTAÇÃO CABO BRANCO CIÊNCIA, CULTURA E ARTES        2                                                                                                                                                                                                        000000
2010954061DIFUSÃO E POPULARIZAÇÃO DA CIÊNCIA, DA CULTURA E DAS ARTES NO ENSINO F2                                                                                                                                                                                                        000000
2010951062CONTENÇÃO E PROTEÇÃO DE ENCOSTAS, BARREIRAS E FALÉSIAS.               1                                                                                                                                                                                                        000000
2010951063SISTEMA VIÁRIO                                                        1                                                                                                                                                                                                        000000
2010954064AÇÕES DIDÁTICAS, PEDAGÓGICAS, ESPORTIVAS E  CULTURAIS                 2                                                                                                                                                                                                        000000
2010957064DESPESAS COM CONTRIBUIÇÕES, AUXÍLIO E/OU SUBVENÇÕES SOCIAIS           0                                                                                                                                                                                                        000000
2010954065ENCARGOS PARA O REGIME PRÓPRIO DE PREVIDÊNCIA SOCIAL - RPPS           2                                                                                                                                                                                                        000000
2010954066REMUNERAÇÃO DO PESSOAL ATIVO DA SETUR                                 2                                                                                                                                                                                                        000000
2010954067REMUNERAÇÃO DO PESSOAL  ATIVO                                         2                                                                                                                                                                                                        000000
2010951068IMPLANTAÇÃO DO SISTEMA DE CICLOVIAS                                   1                                                                                                                                                                                                        000000
2010954069MANUTENÇÃO DOS SERVIÇOS ADMINISTRATIVOS E AQUISIÇÃO DE EQUIPAMENTOS   2                                                                                                                                                                                                        000000
2010957069PLANO DECENAL DOS DIREITOS HUMANOS DE CRIANÇAS E ADOLESCENTES DO MUNIC0                                                                                                                                                                                                        000000
2010954070REMUNERAÇÃO DE PESSOAL DA ESTAÇÃO CABO BRANCO, CIÊNCIA, CULTURA E ARTE2                                                                                                                                                                                                        000000
2010957070EVENTOS ESPORTIVOS                                                    0                                                                                                                                                                                                        000000
2010951072RECUPERAÇÃO E MANUTENÇÃO DE VIAS PÚBLICAS                             1                                                                                                                                                                                                        000000
2010954073REALIZAÇÃO DE SEMINÁRIOS E CONFERÊNCIAS COM ENTIDADES DA SOCIEDADE CIV2                                                                                                                                                                                                        000000
2010957073PARQUE DA LAGOA                                                       0                                                                                                                                                                                                        000000
2010951074MODERNIZAÇÃO E MELHORIA DAS VIAS DE ACESSO AOS TRANSPORTES DE MASSA   1                                                                                                                                                                                                        000000
2010954077COMITÊ DE GESTÃO FUNCIONAL                                            2                                                                                                                                                                                                        000000
2010954079GERENCIAMENTO DA ÁREA METROPOLITANA DA GRANDE JOÃO PESSOA - CONSÓRCIO 2                                                                                                                                                                                                        000000
2010954080TV CIDADE DE JOÃO PESSOA                                              2                                                                                                                                                                                                        000000
2010954081ENCARGOS COM SERVIÇOS POSTAIS E TELEGRAFIA DA SECRETARIA DE EDUCAÇÃO E2                                                                                                                                                                                                        000000
2010951082IMPLANTAÇÃO, EXPANSÃO, EFICIENTIZAÇÃO, RECUPERAÇÃO E MANUTENÇÃO DA RED1                                                                                                                                                                                                        000000
2010954082ENCARGOS COM SERVIÇOS POSTAIS E TELEGRAFIA DA SECRETARIA MUNICIPAL DE 2                                                                                                                                                                                                        000000
2010957083CICLO PATRULHA VERDE PARA O PARQUE DA LAGOA                           0                                                                                                                                                                                                        000000
2010954084CONSELHO DE TRANSPARÊNCIA PÚBLICA                                     2                                                                                                                                                                                                        000000
2010951085PROGRAMA IPTU CIDADÃO                                                 1                                                                                                                                                                                                        000000
2010951086CONSTRUÇÃO, AMPLIAÇÃO, REFORMA E RECUPERAÇÃO DE PRÓPRIOS MUNICIPAIS   1                                                                                                                                                                                                        000000
2010957087ENCARGOS DE EXERCÍCIOS ANTERIORES INERENTES ÀS AÇÕES E SERVIÇOS NA ÁRE0                                                                                                                                                                                                        000000
2010954091PROJETO DE TRABALHO TÉCNICO SOCIAL -PTTS NAS COMUNIDADES INCLUÍDAS NO 2                                                                                                                                                                                                        000000
2010954101APOIO AS FEDERAÇÕES, CLUBES E ASSOCIAÇÕES                             2                                                                                                                                                                                                        000000
2010952105EXECUÇÃO DO PROGRAMA DE QUALIDADE TOTAL                               2                                                                                                                                                                                                        000000
2010954105OLIMPÍADAS DOS SERVIDORES MUNICIPAIS                                  2                                                                                                                                                                                                        000000
2010954106REATIVAÇÃO DO CONSELHO MUNICIPAL DE ESPORTE                           2                                                                                                                                                                                                        000000
2010952108EXPANSÃO E A  MODERNIZAÇÃO DAS AÇÕES DE INFORMÁTICA                   2                                                                                                                                                                                                        000000
2010954112PLANO MUNICIPAL DA JUVENTUDE COMO INDICADOR DAS POLÍTICAS PÚBLICAS    2                                                                                                                                                                                                        000000
2010954113SEMANA DA JUVENTUDE                                                   2                                                                                                                                                                                                        000000
2010954115MEIA MARATONA NA CIDADE DE JOÃO PESSOA                                2                                                                                                                                                                                                        000000
2010954119PROGRAMA DE CRIAÇÃO E PRESERVAÇÃO DA MEMÓRIA ARTÍSTICA, CULTURAL,HISTÓ2                                                                                                                                                                                                        000000
2010952127ENCARGOS COM LOCAÇÃO DE VEÍCULOS DA SEDEC                             2                                                                                                                                                                                                        000000
2010954127BENEFÍCIOS ASSISTENCIAIS                                              2                                                                                                                                                                                                        000000
2010954130ADEQUAÇÃO E AMPLIAÇÃO DA INFRAESTRUTURA DE TECNOLOGIA DA INFORMAÇÃO E 2                                                                                                                                                                                                        000000
2010954131BENEFÍCIOS ASSISTENCIAIS                                              2                                                                                                                                                                                                        000000
2010954132MANUTENÇÃO ADMINISTRATIVA DA COORDENADORIA DO PATRIMÔNIO HISTÓRICO    2                                                                                                                                                                                                        000000
2010952135FORMAÇÃO DE EDUCANDO PARA O EXERCÍCIO PROFISSIONAL                    2                                                                                                                                                                                                        000000
2010952137ACOMPANHAMENTO DE CONVÊNIOS E PROJETOS DO MUNICÍPIO JUNTO AOS ÓRGÃOS D2                                                                                                                                                                                                        000000
2010952142CICLO DO ORÇAMENTO PARTICIPATIVO                                      2                                                                                                                                                                                                        000000
2010954145MONITORAMENTO E FISCALIZAÇÃO INTEGRADA E DESCENTRALIZADA DO TURISMO   2                                                                                                                                                                                                        000000
2010954146QUALIFICAÇÃO DA ATIVIDADE TURÍSTICA                                   2                                                                                                                                                                                                        000000
2010952147PLANEJAMENTO E CAPACITAÇÃO                                            2                                                                                                                                                                                                        000000
2010954148ATUALIZAÇÃO, MANUTENÇÃO E DIVULGAÇÃO DO INVENTÁRIO DA OFERTA TURÍSTICA2                                                                                                                                                                                                        000000
2010954149PESQUISA E TECNOLOGIA DA INFORMAÇÃO DA ATIVIDADE TURÍSTICA E AFINS    2                                                                                                                                                                                                        000000
2010952150ADMINISTRAÇÃO CONTÁBIL E FINANCEIRA                                   2                                                                                                                                                                                                        000000
2010954150IMPLEMENTAR E APOIAR AÇÕES DE SENSIBILIZAÇÃO DA ATIVIDADE TURÍSTICA   2                                                                                                                                                                                                        000000
2010954151PARTICIPAÇÃO EM MOSTRAS, FEIRAS, CONGRESSOS, SEMINÁRIOS E EVENTOS TURÍ2                                                                                                                                                                                                        000000
2010954152APOIAR, REALIZAR E CAPTAR FAMTOURS E PRESSTOURS                       2                                                                                                                                                                                                        000000
2010954153APOIO À PRODUÇÃO DE MUDAS NATIVAS                                     2                                                                                                                                                                                                        000000
2010954155MANUTENÇÃO DO PARQUE ZOOBOTÂNICO ARRUDA CÂMARA                        2                                                                                                                                                                                                        000000
2010952157PROMOÇÃO E EXECUÇÃO DA POLÍTICA ADMINISTRATIVA                        2                                                                                                                                                                                                        000000
2010954157GESTÃO SUSTENTÁVEL DE ATRATIVOS E UNIDADES DE INTERESSE TURÍSTICO     2                                                                                                                                                                                                        000000
2010954158INTEGRAÇÃO INTERSETORIAL REGIONAL, ESTADUAL E NACIONAL                2                                                                                                                                                                                                        000000
2010951159REAPARELHAMENTO MODERNIZAÇÃO E ESTRUTURAÇÃO DA SEMUSB                 1                                                                                                                                                                                                        000000
2010954159MANUTENÇÃO E MODERNIZAÇÃO DO CENTRO DE ESTUDOS E PRATICAS AMBIENTAIS  2                                                                                                                                                                                                        000000
2010952162IMPLEMENTAÇÃO DO PLANO DE CARGOS, CARREIRAS, SALARIOS E DESENVOLVIMENT2                                                                                                                                                                                                        000000
2010952164IMPLEMENTAR O PROGRAMA DE GESTÃO PELA QUALIDADE TOTAL                 2                                                                                                                                                                                                        000000
2010952166IMPLEMENTAR E INTEGRAR SISTEMAS GERENCIAIS DAS DESPESAS PÚBLICAS      2                                                                                                                                                                                                        000000
2010951169CONSTRUIR, REFORMAR, AMPLIAR, ADEQUAR E EQUIPAR UNIDADES DE SAÚDE     1                                                                                                                                                                                                        000000
2010952170MANUTENÇÃO DO ALMOXARIFADO, DO ARQUIVO, CONTROLE DO PATRIMÔNIO E DA GR2                                                                                                                                                                                                        000000
2010954171INSTALAÇÃO, IMPLANTAÇÃO, FUNCIONAMENTO E MANUTENÇÃO DO MUSEU DE CIÊNCI2                                                                                                                                                                                                        000000
2010954172MANUTENÇÃO E ADMINISTRAÇÃO DA CASA DE ARTE MUNICIPAL                  2                                                                                                                                                                                                        000000
2010954173MANUTENÇÃO E ADMINISTRAÇÃO DA BIBLIOTECA PÚBLICA MUNICIPAL            2                                                                                                                                                                                                        000000
2010951174ELABORAÇÃO DE ESTUDOS, PESQUISAS E PROJETOS ARQUITETÔNICOS,NAS ÁREAS D1                                                                                                                                                                                                        000000
2010952174MANUTENÇÃO DO CENTRO ADMINISTRATIVO MUNICIPAL E CONSERVAÇÃO DOS BENS M2                                                                                                                                                                                                        000000
2010951175ELABORAÇÃO DE ESTUDOS E PROJETOS PARA A ÁREA DE HABITAÇÃO E DESENVOLVI1                                                                                                                                                                                                        000000
2010952175EXPANSÃO E MODERNIZAÇÃO DAS AÇÕES DE INFORMÁTICA                      2                                                                                                                                                                                                        000000
2010951178IMPLANTAÇÃO DE BIBLIOTECA                                             1                                                                                                                                                                                                        000000
2010951179MODERNIZAÇÃO  DO SISTEMA DE INFORMAÇÕES URBANAS GEORREFERENCIADAS     1                                                                                                                                                                                                        000000
2010951180ELABORAÇÃO DE ESTUDOS E PROJETOS PARA A FORMAÇÃO DE INDICADORES SINTÉT1                                                                                                                                                                                                        000000
2010952182LEGALIZAÇÃO FUNDIÁRIA                                                 2                                                                                                                                                                                                        000000
2010954182MANTER O CONSELHO MUNICIPAL DE TURISMO (COMTUR)                       2                                                                                                                                                                                                        000000
2010952183CONSULTORIA TÉCNICA ADMINISTRATIVA, CONTROLE E AUDITORIA DAS DESPESAS 2                                                                                                                                                                                                        000000
2010954183FORMATAÇÃO DE ROTEIROS E ATIVIDADES TURÍSTICAS                        2                                                                                                                                                                                                        000000
2010952185GESTÃO DESEMPENHO FUNCIONAL                                           2                                                                                                                                                                                                        000000
2010954185PLANO DE CONSERVAÇÃO E RECUPERAÇÃO DA MATA ATLANTICA                  2                                                                                                                                                                                                        000000
2010951186IMPLANTAÇÃO DE UNIDADES HABITACIONAIS                                 1                                                                                                                                                                                                        000000
2010954186SINALIZAÇÃO DAS VIAS URBANAS                                          2                                                                                                                                                                                                        000000
2010951187IMPLANTAÇÃO DA INFRA-ESTRUTURA DE URBANIZAÇÃO DOS PROJETOS HABITACIONA1                                                                                                                                                                                                        000000
2010951188PROGRAMA INTEGRADO DE HABITAÇÃO                                       1                                                                                                                                                                                                        000000
2010954188MANUTENÇÃO DE EVENTOS ESPORTIVOS E PROGRAMA ROTA DO ESPORTE           2                                                                                                                                                                                                        000000
2010954189MANUTENÇÃO DE ATIVIDADES PARA TERCEIRA IDADE                          2                                                                                                                                                                                                        000000
2010951190ELABORAÇÃO DE ESTUDOS E PROJETOS PARA A AREA DE HABITAÇÃO E DESENVOLVI1                                                                                                                                                                                                        000000
2010954190MANUTENÇÃO DE ATIVIDADES FÍSICAS PARA OS PORTADORES DE DEFICIÊNCIAS   2                                                                                                                                                                                                        000000
2010951191IMPLANTAÇÃO DE INCUBADORA DE EMPRESAS DE BASE TECNOLÓGICA E DE PARQUE 1                                                                                                                                                                                                        000000
2010951193CONSTRUÇÃO, AMPLIAÇÃO, REFORMA E RECUPERAÇÃO DE CEMITÉRIOS            1                                                                                                                                                                                                        000000
2010952195MODERNIZAÇÃO DA GESTÃO PÚBLICA                                        2                                                                                                                                                                                                        000000
2010951196CENTRO VOCACIONAL TECNOLÓGICO                                         1                                                                                                                                                                                                        000000
2010954197EVENTOS E CONCURSOS AMBIENTAIS                                        2                                                                                                                                                                                                        000000
2010954199INVENTÁRIO ARBÓREO QUALIQUANTITATIVO DAS ÁRVORES DA CIDADE.           2                                                                                                                                                                                                        000000
2010954200PRESERVAÇÃO DE ÁREAS VERDES                                           2                                                                                                                                                                                                        000000
2010954201CONSULTORIA AMBIENTAL                                                 2                                                                                                                                                                                                        000000
2010954202CAPACITAÇÃO DE TÉCNICOS                                               2                                                                                                                                                                                                        000000
2010952203POLÍTICA DE SEGURANÇA ALIMENTAR                                       2                                                                                                                                                                                                        000000
2010954205MANUTENÇÃO E COORDENAÇÃO DA DIPLUR                                    2                                                                                                                                                                                                        000000
2010954206MANUTENÇÃO E COORDENAÇÃO DA UEM                                       2                                                                                                                                                                                                        000000
2010954208CONSTRUÇÃO, AMPLIAÇÃO, MANUTENÇÃO, REFORMA E RECUPERAÇÃO DE CENTROS  D2                                                                                                                                                                                                        000000
2010952210ESPAÇO DO SERVIDOR                                                    2                                                                                                                                                                                                        000000
2010952212PROGRAMA DE COMBATE A DEPENDÊNCIA QUÍMICA DOS SERVIDORES MUNICIPAIS   2                                                                                                                                                                                                        000000
2010954215REMUNERAÇÃO DO PESSOAL ATIVO DA SEPPM                                 2                                                                                                                                                                                                        000000
2010954216MANUTENÇÃO DAS ATIVIDADES ADMINISTRATIVAS - SEPPM                     2                                                                                                                                                                                                        000000
2010954217BENEFÍCIOS ASSISTÊNCIAIS                                              2                                                                                                                                                                                                        000000
2010952218CAPACITAÇÃO DE RECURSOS HUMANOS                                       2                                                                                                                                                                                                        000000
2010952219FORMAÇÃO DE EDUCANDOS PARA O EXERCÍCIO PROFISSIONAL                   2                                                                                                                                                                                                        000000
2010952221AQUISIÇÃO DE MÁQUINAS E EQUIPAMENTOS  RODOVIÁRIOS                     2                                                                                                                                                                                                        000000
2010952223PROGRAMA DA POLÍTICA PARA PESSOA IDOSA                                2                                                                                                                                                                                                        000000
2010952224PESQUISA E MARKETING                                                  2                                                                                                                                                                                                        000000
2010952225DIVULGAÇÃO DAS ATIVIDADES DO GOVERNO                                  2                                                                                                                                                                                                        000000
2010954225ASSESSORIA TÉCNICA ESPECIALIZADA                                      2                                                                                                                                                                                                        000000
2010954226ELABORAÇÃO E IMPLANTAÇÃO DA POLITICA DE SEGURANÇA DA INFORMAÇÃO NO ÂMB2                                                                                                                                                                                                        000000
2010952227MANUTENÇÃO DE PLANEJAMENTO ESTRATÉGICO                                2                                                                                                                                                                                                        000000
2010954228ELABORAÇÃO E IMPLANTAÇÃO DO PLANO DE CARGOS, CARREIRA E REMUNERAÇÃO PA2                                                                                                                                                                                                        000000
2010952229PROGRAMAS E SERVIÇOS DA PROTEÇÃO SOCIAL BÁSICA (PBF, CRAS, SCFV, PRIME2                                                                                                                                                                                                        000000
2010954230ELABORAÇÃO E IMPLANTAÇÃO DO PROGRAMA DE CAPACITAÇÃO E QUALIFICAÇÃO DE 2                                                                                                                                                                                                        000000
2010954232ADEQUAÇÃO E AMPLIAÇÃO DO DATACENTER MUNICIPAL                         2                                                                                                                                                                                                        000000
2010952233IMPLANTAÇÃO, ESTRUTURAÇÃO E FUNCIONAMENTO DOS CENTROS DE REFERÊNCIA DA2                                                                                                                                                                                                        000000
2010954233MANUTENÇÃO E EVOLUÇÃO DOS ATIVOS DE HARDWARE NO ÂMBITO DA PMJP        2                                                                                                                                                                                                        000000
2010952240MELHORIA DO CONTROLE DOCUMENTAL                                       2                                                                                                                                                                                                        000000
2010952244MELHORIA DA EXECUÇÃO ORÇAMENTÁRIA                                     2                                                                                                                                                                                                        000000
2010954245PROGRAMA COPA CLUBES CAMPEÕES DE BAIRROS                              2                                                                                                                                                                                                        000000
2010954246OLIMPÍADAS ESCOLARES MUNICIPAIS                                       2                                                                                                                                                                                                        000000
2010951249IMPLANTAÇÃO DO SISTEMA MUNICIPAL DE DESENVOLVIMENTO HUMANO            1                                                                                                                                                                                                        000000
2010954249MANTER E IMPLEMENTAR OS CONSELHOS DE SAÚDE E FORTALECER AS AÇÕES DE PA2                                                                                                                                                                                                        000000
2010952253IMPLEMENTAÇÃO, INSTALAÇÃO E MANUTENÇÃO DE LABORATÓRIOS                2                                                                                                                                                                                                        000000
2010952254ACOLHIMENTO INSTITUCIONAL PARA CRIANÇA E ADOLESCENTES AMEAÇADO DE MORT2                                                                                                                                                                                                        000000
2010954254CONSTRUÇÃO, REVITALIZAÇÃO, RECUPERAÇÃO DE PRAÇAS E ÁREAS DE LAZER     2                                                                                                                                                                                                        000000
2010954255INSTALAÇÃO E RECUPERAÇÃO DA ILUMINAÇÃO DE ÁREAS DE USO COMUNITÁRIO    2                                                                                                                                                                                                        000000
2010954260AQUISIÇÃO DE VEÍCULOS DA SECRETARIA MUNICIPAL DE SAÚDE - SMS          2                                                                                                                                                                                                        000000
2010954261AQUISIÇÃO DE VEÍCULOS DA SECRETARIA MUNICIPAL DE EDUCAÇÃO E CULTURA   2                                                                                                                                                                                                        000000
2010954264FORTALECER A CAPACIDADE INSTITUCIONAL DO SISTEMA MUNICIPAL DE OUVIDORI2                                                                                                                                                                                                        000000
2010954266AMPLIAR O SERVIÇO DE OUVIDORIA                                        2                                                                                                                                                                                                        000000
2010952267PROGRAMA DE ATENDIMENTO SOCIOASSISTENCIAL À PESSOA EM VULNERABILIDADE 2                                                                                                                                                                                                        000000
2010954267REALIZAR CAMPANHA DE DIVULGAÇÃO/INFORMAÇÃO À POPULAÇÃO DE JOÃO PESSOA 2                                                                                                                                                                                                        000000
2010951268ELABORAÇÃO DE ESTUDOS E PROJETOS DE MOBILIDADE,TRANSPORTE E ACESSIBILI1                                                                                                                                                                                                        000000
2010951269ELABORAÇÃO DE ESTUDOS E PROJETOS DE URBANIZAÇÃO                       1                                                                                                                                                                                                        000000
2010952274PROJETO MONUMENTA                                                     2                                                                                                                                                                                                        000000
2010951275ELABORAÇÃO DE ESTUDOS E PROJETOS DE RECUPERAÇÃO DE ÁREAS DEGRADADAS   1                                                                                                                                                                                                        000000
2010952275MANUTENÇÃO DOS CEMITÉRIOS                                             2                                                                                                                                                                                                        000000
2010951277ELABORAÇÃO DE ESTUDOS E PROJETOS DE RECUPERAÇÃO DE ÁREAS CENTRAIS     1                                                                                                                                                                                                        000000
2010951280CONTRATAÇÃO DOS SERVIÇOS DE TOPOGRAFIA                                1                                                                                                                                                                                                        000000
2010952281CONSTRUÇÃO, AMPLIAÇÃO, MANUTENÇÃO E REFORMA E RECUPERAÇÃO DE MERCADOS 2                                                                                                                                                                                                        000000
2010951284GERENCIAMENTO, SUPERVISÃO DE OBRAS E FISCALIZAÇÃO.                    1                                                                                                                                                                                                        000000
2010951285CONTRATAÇÃO DE SERVIÇOS ESPECIALIZADOS PARA CONTROLE TECNOLÓGICO.     1                                                                                                                                                                                                        000000
2010951290IMPLANTAÇÃO E EXECUÇÃO DE OBRAS ESPECIAIS                             1                                                                                                                                                                                                        000000
2010952290ENCARGOS DECORRENTES DE MULTAS E FRANQUIAS                            2                                                                                                                                                                                                        000000
2010951292CONSTRUÇÃO, REFORMA E AMPLIAÇÃO DE PRÓPRIOS MUNICIPAIS                1                                                                                                                                                                                                        000000
2010951293CONSTRUÇÃO,REFORMA,RECUPERAÇÃO E AMPLIAÇÃO DE PRÓPRIOS MUNICIPAIS     1                                                                                                                                                                                                        000000
2010952300ENCARGOS COM SERVIÇOS DE PROCESSAMENTO DE DADOS, INTERNET, INTRANET E 2                                                                                                                                                                                                        000000
2010952302ENCARGOS COM ÁGUA DO PODER PÚBLICO                                    2                                                                                                                                                                                                        000000
2010952304ENCARGOS COM ENERGIA DO PODER PÚBLICO                                 2                                                                                                                                                                                                        000000
2010952305ENCARGOS COM TELEFONIA FIXA E MÓVEL DO PODER PÚBLICO                  2                                                                                                                                                                                                        000000
2010952306PARCERIAS DIDÁTICO PEDAGÓGICO                                         2                                                                                                                                                                                                        000000
2010951309PROJETOS E AÇÕES FÍSICAS  DE PROTEÇÃO DA FALÉSIA DO CABO BRANCO E PONT1                                                                                                                                                                                                        000000
2010952312FORTALECIMENTO DOS CONSELHOS ESCOLARES E DE POLÍTICAS EDUCACIONAIS    2                                                                                                                                                                                                        000000
2010954313ACOMPANHAMENTO DAS AÇÕES DO MUNICÍPIO JUNTO AOS ÓRGÃOS DO GOVERNO FEDE2                                                                                                                                                                                                        000000
2010952314EVENTOS EDUCACIONAIS E CULTURAIS                                      2                                                                                                                                                                                                        000000
2010954314REMUNERAÇÃO DOS SERVIDORES DA SECRETARIA MUNICIPAL DE SEGURANÇA URBANA2                                                                                                                                                                                                        000000
2010954319AQUISIÇÃO DE SEMENTES, MUDAS NATIVAS E ORNAMENTAIS, GRAMA, TERRA VEGET2                                                                                                                                                                                                        000000
2010951320MANUTENÇÃO DAS INSTALAÇÕES FÍSICAS DA CGM                             1                                                                                                                                                                                                        000000
2010954320ELABORAÇÃO E IMPLANTAÇÃO DO PLANO MUNICIPAL DE SANEAMENTO BÁSICO      2                                                                                                                                                                                                        000000
2010954322IMPLEMENTAÇÃO DO SISTEMA MUNICIPAL DE ÁREAS PROTEGIDAS - SMAP         2                                                                                                                                                                                                        000000
2010951323MATERIAL PROMOCIONAL                                                  1                                                                                                                                                                                                        000000
2010954323APOIO A ATIVIDADES DE QUALIFICAÇÃO E SENSIBILIZAÇÃO  PARA PROFISSIONAI2                                                                                                                                                                                                        000000
2010952325ENCARGOS COM LOCAÇÃO DE IMÓVEIS DO PODER PÚBLICO                      2                                                                                                                                                                                                        000000
2010951326PROGRAMA DE DIVULGAÇÃO DO ORÇAMENTO PARTICIPATIVO                     1                                                                                                                                                                                                        000000
2010951327PRODUÇÃO DE MATERIAIS  INSTITUCIONAIS, EDUCATIVOS E PEDAGÓGICOS       1                                                                                                                                                                                                        000000
2010952330AQUISIÇÃO DE VEÍCULOS DO PODER PÚBLICO                                2                                                                                                                                                                                                        000000
2010954331REALIZAÇÃO DE AÇÕES DE EDUCAÇÃO EM GÊNERO E APOIO ÀS MULHERES NA PRODU2                                                                                                                                                                                                        000000
2010954338CAPACITAÇÃO, FORMAÇÃO , QUALIFICAÇÃO, EMPREENDEDORISMO E FOMENTO ÀS AT2                                                                                                                                                                                                        000000
2010951339RECUPERAÇÃO DE ÁREAS DEGRADADAS                                       1                                                                                                                                                                                                        000000
2010952340ENCARGOS COM LOCAÇÃO DE VEÍCULOS                                      2                                                                                                                                                                                                        000000
2010951341CONSTRUÇÃO E REFORMA NA CENTRAL DE COMERCIALIZAÇÃO E ASSISTÊNCIA TÉCNI1                                                                                                                                                                                                        000000
2010952345ENCARGOS COM SERVIÇOS POSTAIS E TELEGRAFIA                            2                                                                                                                                                                                                        000000
2010951346FORMAR BANCO DE DADOS PARA OFERTA DE EMPREGO NAS DIVERSAS ATIVIDADES  1                                                                                                                                                                                                        000000
2010952346ENCARGOS COM LOCAÇÃO DE VEÍCULOS DA SECRETARIA MUNICIPAL DE SAÚDE - SM2                                                                                                                                                                                                        000000
2010954346CRIAÇÃO, ALIMENTAÇÃO E MANUTENÇÃO DE BANCO DE DADOS PARA REGISTRO E MO2                                                                                                                                                                                                        000000
2010952348ENCARGOS COM LOCAÇÃO DE IMÓVEIS DA SECRETARIA MUNICIPAL DE SAÚDE - SMS2                                                                                                                                                                                                        000000
2010954349APOIO PARA REALIZAÇÃO DE EVENTOS DA LGBT E DA IGUALDADE RACIAL.       2                                                                                                                                                                                                        000000
2010952350ENCARGOS COM ÁGUA DA SECRETARIA MUNICIPAL DE SAÚDE - SMS              2                                                                                                                                                                                                        000000
2010954350QUALIFICAÇÃO PROFISSIONAL PARA OS DIREITOS HUMANOS.                   2                                                                                                                                                                                                        000000
2010952351ENCARGOS COM ENERGIA DA SECRETARIA MUNICIPAL DE SAÚDE - SMS           2                                                                                                                                                                                                        000000
2010952352ENCARGOS COM TELEFONIA FIXA E MÓVEL DA SECRETARIA MUNICIPAL DE SAÚDE -2                                                                                                                                                                                                        000000
2010952354ENCARGOS COM LOCAÇÃO DE IMÓVEIS DA SEDEC                              2                                                                                                                                                                                                        000000
2010952355ENCARGOS COM ÁGUA DA SEDEC                                            2                                                                                                                                                                                                        000000
2010952356ENCARGOS COM ENERGIA DA SECRETARIA MUNICIPAL DE EDUCAÇÃO E CULTURA - S2                                                                                                                                                                                                        000000
2010952358ENCARGOS COM TELEFONIA FIXA E MÓVEL DA SECRETARIA MUNICIPAL DE EDUCAÇÃ2                                                                                                                                                                                                        000000
2010954358APOIO A ATIVIDADES DE QUALIFICAÇÃO E SENSIBILIZAÇÃO  PARA  PARA PROFIS2                                                                                                                                                                                                        000000
2010954359PROMOÇÃO DE CAMPANHAS E AÇÕES EDUCATIVAS SOBRE TEMÁTICAS LIGADAS AOS D2                                                                                                                                                                                                        000000
2010951361ELABORAÇÃO DE ESTUDOS E PROJETOS DE DESENVOLVIMENTO URBANO            1                                                                                                                                                                                                        000000
2010951364REESTRUTURAÇÃO DA DIRETORIA DE GEOPROCESSAMENTO                       1                                                                                                                                                                                                        000000
2010954367ESTUDOS SOBRE RUCURSOS HUMANOS                                        2                                                                                                                                                                                                        000000
2010954372GESTÃO, MANUTENÇÃO, CONSERVAÇÃO DA FROTA DE VEÍCULOS DO MUNICÍPIO     2                                                                                                                                                                                                        000000
2010954373GESTÃO, MANUTENÇÃO, CONSERVAÇÃO DA FROTA DE VEÍCULOS DA SECRETARIA MUN2                                                                                                                                                                                                        000000
2010954374GESTÃO, MANUTENÇÃO, CONSERVAÇÃO DA FROTA DE VEÍCULOS DA SECRETARIA MUN2                                                                                                                                                                                                        000000
2010954377CENTRO DE RECONDICIONAMENTO DE COMPUTADORES - CRC                     2                                                                                                                                                                                                        000000
2010954378MANUTENÇÃO DO CONSELHO DE DESENVOLVIMENTO URBANO                      2                                                                                                                                                                                                        000000
2010954382ESTABELECER PARCERIAS COM MEIOS DE DIVULGAÇÃO E VEICULAÇÃO NACIONAIS P2                                                                                                                                                                                                        000000
2010951384URBANIZAÇÃO E REGULARIZAÇÃO DE ASSENTAMENTOS PRECÁRIOS                1                                                                                                                                                                                                        000000
2010954384PROMOÇÃO DAS ATIVIDADES DA PMJP ATRAVÉS DE MEIOS ALTERNATIVOS E DIGITA2                                                                                                                                                                                                        000000
2010954387MESA PERMANENTE DE NEGOCIAÇÃO                                         2                                                                                                                                                                                                        000000
2010954388REMUNERAÇÃO DO PESSOAL ATIVO DA COMPDEC                               2                                                                                                                                                                                                        000000
2010954389MANUTENÇÃO DAS ATIVIDADES ADMINISTRATIVAS                             2                                                                                                                                                                                                        000000
2010954390MODERNIZAÇÃO DA ADMINISTRAÇÃO TRIBUTÁRIA E DA GESTÃO DOS SETORES SOCIA2                                                                                                                                                                                                        000000
2010954392FARDAMENTO E EPI                                                      2                                                                                                                                                                                                        000000
2010951393REVITALIZAÇÃO DO PORTO DO CAPIM                                       1                                                                                                                                                                                                        000000
2010954393MANUTENÇÃO DOS SERVIÇOS ADMINISTRATIVO.                               2                                                                                                                                                                                                        000000
2010951394ELABORAÇÃO DE ESTUDOS, PROJETOS E MAPEAMENTOS, NAS ÁREAS DE EQUIPAMENT1                                                                                                                                                                                                        000000
2010954394RECUPERAR, REVITALIZAÇÃO DO VERDE URBANO, CANTEIROS CENTRAIS, CALÇADAS2                                                                                                                                                                                                        000000
2010954395SEGURANÇA, CONSERVAÇÃO, HIGIENIZAÇÃO E LIMPEZA.                       2                                                                                                                                                                                                        000000
2010954396PREVENÇÃO ÀS VIOLÊNCIAS E CULTURA DE PAZ                              2                                                                                                                                                                                                        000000
2010952397ENCARGOS COM A PREVIDÊNCIA SOCIAL  - INSS                             2                                                                                                                                                                                                        000000
2010954397SEGURANÇA, CONSERVAÇÃO, HIGIENIZAÇÃO ELIMPEZA.                        2                                                                                                                                                                                                        000000
2010954398JUVENTUDE VIVA MUNICIPAL                                              2                                                                                                                                                                                                        000000
2010954399CRIAÇÃO DO CENTRO DE CIDADANIA PARA A POPULAÇÃO LGBT E DA IGUALDADE RA2                                                                                                                                                                                                        000000
2010952400CONTRIBUIÇÃO PARA O INSTITUTO DE PREVIDÊNCIA MUNCIPAL - IPM           2                                                                                                                                                                                                        000000
2010954400INTERDIÇÕES E SINALIZAÇÕES DE ÁREAS E PRÉDIOS DO CENTRO HISTÓRICO E OU2                                                                                                                                                                                                        000000
2010952402ENCARGOS COM PENSÃO ESPECIAL DO EXECUTIVO - ADMINISTRAÇÃO DIRETA      2                                                                                                                                                                                                        000000
2010954403APOIAR A REALIZAÇÃO DE EVENTOS AMADORES NOS BAIRROS DA CAPITAL.       2                                                                                                                                                                                                        000000
2010954405APOIO ESPORTIVO CULTURAL E ASSISTENCIAL                               2                                                                                                                                                                                                        000000
2010954406ATIVIDADES FÍSICAS E ESPORTES NA ORLAMARÍTIMA                         2                                                                                                                                                                                                        000000
2010952407DIVULGAÇÃO DA LEI ORGÂNICA DO MUNICÍPIO.                              2                                                                                                                                                                                                        000000
2010954407ATIVIDADES FÍSICA PARA TERCEIRA IDADE.                                2                                                                                                                                                                                                        000000
2010952408ENCARGOS COM AUXÍLIO-TRANSPORTE DO PODER EXECUTIVO                    2                                                                                                                                                                                                        000000
2010954408CAMINHAR É SAUDE                                                      2                                                                                                                                                                                                        000000
2010954409CONSELHO MUNICIPAL DE JUVENTUDE                                       2                                                                                                                                                                                                        000000
2010954410APOIAR A REALIZAÇÃO DE EVENTOSAMADORES NOS BAIRROS DA CAPITAL.        2                                                                                                                                                                                                        000000
2010952411INTEGRAÇÃO GOVERNO MUNICIPAL/ COMUNIDADE.                             2                                                                                                                                                                                                        000000
2010952413ENCARGOS COM AUXÍLIO TRANSPORTE DA SECRETARIA MUNICIPAL DE EDUCAÇÃO E 2                                                                                                                                                                                                        000000
2010954413INCENTIVAR A PRÁTICA DE ATIVIDADES FÍSICASPARA CRIANÇAS, ADOLESCENTES 2                                                                                                                                                                                                        000000
2010951414IMPLANTAÇÃO E EXECUÇÃO DE OBRAS DE URBANIZAÇÃO                        1                                                                                                                                                                                                        000000
2010954414INICIAÇÃO ESPORTIVA                                                   2                                                                                                                                                                                                        000000
2010954415JUVENTUDE FAZENDO ARTE                                                2                                                                                                                                                                                                        000000
2010952418SERVIÇOS DE INFORMÁTICA E TECNOLOGIA DA INFORMAÇAO                    2                                                                                                                                                                                                        000000
2010952421AQUISIÇÃO DE SEMENTES, PLANTAS ORNAMENTAIS , GRAMA E SUBSTRATOS       2                                                                                                                                                                                                        000000
2010952423MONITORAMENTO, DIAGNÓSTICO E AVALIAÇÃO DE PROGRAMAS E PROJETOS        2                                                                                                                                                                                                        000000
2010954424SERVIÇOS DE SEGURANÇA ALIMENTAR ( COZINHAS COMUNITÁRIAS; RESTAURANTES 2                                                                                                                                                                                                        000000
2010954425PROTEÇÃO DE ALTA COMPLEXIDADE (ACOLHIMENTO INSTITUCIONAL)             2                                                                                                                                                                                                        000000
2010952427DIVULGAÇÃO OFICIAL                                                    2                                                                                                                                                                                                        000000
2010952428MANUTENÇÃO E OPERACIONALIZAÇÃO DE MÁQUINAS, EQUIPAMENTOS E VEÍCULOS   2                                                                                                                                                                                                        000000
2010952429MANUTENÇÃO E CONSERVAÇÃO DE PRÓPRIOS MUNICIPAL                        2                                                                                                                                                                                                        000000
2010954431ESTABILIZAÇÃO E PROTEÇÃO DE ENCOSTAS E/OU TALUDES                     2                                                                                                                                                                                                        000000
2010954437MANTER E IMPLEMENTAR OS SERVIÇOS ADMINISTRATIVOS GERAIS               2                                                                                                                                                                                                        000000
2010951441IMPLANTAÇÃO, AMPLIAÇÃO E MANUTENÇÃO DE CENTROS DE ATENDIMENTO E POSTOS1                                                                                                                                                                                                        000000
2010951444IMPLANTAÇÃO, RECUPERAÇÃO E MANUTENÇÃO DE EQUIPAMENTOS, PRÉDIOS, ESTRUT1                                                                                                                                                                                                        000000
2010951445APOIAR E FOMENTAR OS SEGMENTOS DE TURISMO SOL E PRAIA, NÁUTICO, EVENTO1                                                                                                                                                                                                        000000
2010951449CRIAÇÃO, PRODUÇÃO E MANUTENÇÃO DE CAMPANHAS PROMOCIONAIS E FERRAMENTAS1                                                                                                                                                                                                        000000
2010951455IMPLANTAÇÃO DA UNIDADE DE GEO-INFORMAÇÃO                              1                                                                                                                                                                                                        000000
2010954458AÇÕES ESTRATÉGICAS DO PROGRAMA DE ERRADICAÇÃO DO TRABALHO INFANTIL-PET2                                                                                                                                                                                                        000000
2010954462DESPESAS DE EXERCICIOS ANTERIORES TRANSF. CONV. REC. UNIÃO            2                                                                                                                                                                                                        000000
2010954464CONSTRUIR HABITAÇÕES POPULARES DOTADAS DE INFRAESTRUTURAS BASICAS.    2                                                                                                                                                                                                        000000
2010951466CONSTRUÇÃO DE OBRAS ESPECIAIS                                         1                                                                                                                                                                                                        000000
2010954467DIVULGAÇÃO DE DADOS DA GESTÃO MUNICIPAL                               2                                                                                                                                                                                                        000000
2010951468PROGRAMA DE COOPERAÇÃO PARA O DESENVOLVIMENTO DA INFRAESTRUTURA URBANA1                                                                                                                                                                                                        000000
2010954468SERVIÇO DE INFORMAÇÃO AO CIDADÃO                                      2                                                                                                                                                                                                        000000
2010951470AQUISIÇÃO DE IMÓVEL E ADEQUAÇÃO DA INSTALAÇÃO FÍSICA DA COPAC         1                                                                                                                                                                                                        000000
2010954470CONTROLE INTERNO DA GESTÃO                                            2                                                                                                                                                                                                        000000
2010952476ADEQUAÇÃO DA INFRAESTRUTURA DAS UNIDADES ESCOLARES.                   2                                                                                                                                                                                                        000000
2010951477FORUM DE GESTÃO PARA ATIVIDADES INTERSETORIAL                         1                                                                                                                                                                                                        000000
2010954479FORMULAÇÃO, COORDENAÇÃO E ARTICULAÇÃO DAS POLÍTICAS PARA AS MULHERES E2                                                                                                                                                                                                        000000
2010954482DESPESA DE PESSOAL COM MAGISTÉRIO E DEMAIS PROFISSIONAIS DA EDUCAÇÃO -2                                                                                                                                                                                                        000000
2010952484MANUTENÇÃO DAS ESTAÇÕES DIGITAIS                                      2                                                                                                                                                                                                        000000
2010954486PROJETO JOÃO PESSOA ARTESÃ                                            2                                                                                                                                                                                                        000000
2010954487INCLUSÃO PRODUTIVA PARA INSERÇÃO NO MUNDO DO TRABALHO (CRISPMAN, VESTU2                                                                                                                                                                                                        000000
2010954488PROGRAMA DE PROMOÇÃO DO ACESSO AO MUNDO DO TRABALHO - ACESSUAS TRABALH2                                                                                                                                                                                                        000000
2010954491SETOR DE MANUTENÇÃO                                                   2                                                                                                                                                                                                        000000
2010951493ELABORAÇÃO E IMPLANTAÇÃO DO PLANO MUNICIPAL DE GESTÃO INTEGRADA DE RES1                                                                                                                                                                                                        000000
2010952493ENCARGOS COM AUXÍLIO ALIMENTAÇÃO PARA OS SERVIDORES                   2                                                                                                                                                                                                        000000
2010951495ASSESSORIA ESPECIALIZADA                                              1                                                                                                                                                                                                        000000
2010951496CRIAÇÃO E INSTALAÇÃO DE PLANOS E CONSELHOS                            1                                                                                                                                                                                                        000000
2010952496PROGRAMA MUNICIPAL DE DINHEIRO DIRETO NA ESCOLA                       2                                                                                                                                                                                                        000000
2010952498GESTÃO ESCOLAR                                                        2                                                                                                                                                                                                        000000
2010952499BANDAS MARCIAIS ESCOLARES E MUSICALIZAÇÃO INFANTIL NOS CREI'S         2                                                                                                                                                                                                        000000
2010951501GOVERNABILIDADE E SUSTENTABILIDADE FISCAL                             1                                                                                                                                                                                                        000000
2010951502PLANEJAMENTO E DESENVOLVIMENTO URBANO.                                1                                                                                                                                                                                                        000000
2010951503SUSTENTABILIDADE AMBIENTAL E MUDANÇAS CLIMÁTICAS                      1                                                                                                                                                                                                        000000
2010951504REESTRUTURAÇÃO E MODERNIZAÇÃO DO SISTEMA DE TRANSITO E TRANSPORTES DE 1                                                                                                                                                                                                        000000
2010951505REVITALIZAÇÃO DO VALE DO RIO JAGUARIBE E REESTRUTURAÇÃO URBANA.       1                                                                                                                                                                                                        000000
2010951508IMPLANTAÇÃO DO COMPLEXO TURÍSTICO , CULTURAL E DE SERVIÇOS DA CIDADE A1                                                                                                                                                                                                        000000
2010951509PLANO DIRETOR DE TECNOLOGIA DA INFORMAÇÃO E COMUNICAÇÃO DO MUNICÍPIO D1                                                                                                                                                                                                        000000
2010952510INFRAESTRUTURA BÁSICA                                                 2                                                                                                                                                                                                        000000
2010952512SAÚDE  DO ESCOLAR                                                     2                                                                                                                                                                                                        000000
2010952514ALIMENTAÇÃO DO ESCOLAR                                                2                                                                                                                                                                                                        000000
2010952520PROJOVEM URBANO                                                       2                                                                                                                                                                                                        000000
2010952521EDUCAÇÃO DE JOVENS E ADULTOS E BRASIL ALFABETIZADO                    2                                                                                                                                                                                                        000000
2010951526INTEGRAÇÃO DA REGIÃO METROPOLITANA DE JOÃO PESSOA                     1                                                                                                                                                                                                        000000
2010952526CUIDANDO DA SAÚDE                                                     2                                                                                                                                                                                                        000000
2010951528PROGRAMA BOLSA UNIVERSITÁRIA                                          1                                                                                                                                                                                                        000000
2010951529GARANTIR BENEFICIO EVENTUAL POR MEIO DO BALCÃO DE DIREITOS            1                                                                                                                                                                                                        000000
2010952529APOIO A EDUCAÇÃO INCLUSIVA                                            2                                                                                                                                                                                                        000000
2010951533ATIVIDADES FISICAS E SOCIAIS                                          1                                                                                                                                                                                                        000000
